:020000040800F2
:100000000000052031660008A9650008AB650008FE
:10001000AD650008AF650008B1650008000000008C
:100020000000000000000000000000007143000814
:10003000B3650008000000000144000865440008A2
:1000400081660008816600088166000881660008F4
:1000500081660008816600088166000881660008E4
:1000600081660008816600088166000881660008D4
:1000700081660008816600088166000881660008C4
:1000800081660008816600088166000881660008B4
:1000900081660008816600088166000881660008A4
:1000A0008166000881660008816600088166000894
:1000B0008166000881660008816600088166000884
:1000C0008166000881660008816600088166000874
:1000D0008166000881660008816600088166000864
:1000E0008166000881660008816600088166000854
:1000F0008166000881660008816600088166000844
:1001000081660008B5650008816600088166000800
:100110008166000881660008C165000881660008E4
:10012000816600088166000881660008CD650008C8
:100130008166000881660008816600088166000803
:1001400081660008816600088166000881660008F3
:1001500081660008D965000881660008816600088C
:1001600081660008816600088166000881660008D3
:1001700081660008816600088166000800000000B2
:1001800081660008816600088166000881660008B3
:1001900081660008816600088166000881660008A3
:1001A0008166000881660008816600088166000893
:0401B000816600085C
:1001C00010B5054C237833B9044B13B10448AFF391
:1001D00000800123237010BD1000002000000000EB
:1001E000F466000808B5034B1BB103490348AFF39D
:1001F000008008BD0000000014000020F466000824
:1002000053B94AB9002908BF00281CBF4FF0FF317D
:100210004FF0FF3000F07AB9ADF1080C6DE904CE73
:1002200000F006F8DDF804E0DDE9022304B07047D1
:100230002DE9F0478C460D460446089E002B51D10F
:100240008A4217466DD9B2FA82FEBEF1000F0BD07A
:10025000CEF1200C01FA0EF520FA0CFC02FA0EF792
:100260004CEA050C00FA0EF44FEA174A250CBCFBC9
:10027000FAF81FFA87F90AFB18CC45EA0C4508FB87
:1002800009F3AB420AD9ED1908F1FF3280F023815E
:10029000AB4240F22081A8F102083D44ED1AA4B21D
:1002A000B5FBFAF00AFB105544EA054400FB09F9D6
:1002B000A14509D9E41900F1FF3380F00A81A14575
:1002C00040F2078102383C44A4EB090440EA0840AC
:1002D0000021002E61D024FA0EF4002334607360F4
:1002E000BDE8F0878B4207D9002E54D0002186E864
:1002F00021000846BDE8F087B3FA83F1002940F0F9
:100300008E80AB4202D3824200F2FA80841A65EBFF
:1003100003050120AC46002E3FD086E81010BDE852
:10032000F08712B90127B7FBF2F7B7FA87FEBEF1E3
:10033000000F34D1EB1B3A0C1FFA87FC0121B3FBF1
:10034000F2F8250C02FB183345EA03450CFB08F3D1
:10035000AB4207D9ED1908F1FF3002D2AB4200F2EF
:10036000D1808046ED1AA3B2B5FBF2F002FB105526
:1003700043EA05440CFB00FCA44507D9E41900F14D
:10038000FF3302D2A44500F2B8801846A4EB0C0457
:1003900040EA08409DE731463046BDE8F087CEF19F
:1003A000200405FA0EF307FA0EF720FA04F83A0CC7
:1003B00025FA04F448EA0308B4FBF2F14FEA1845C1
:1003C00002FB11441FFA87FC45EA044501FB0CF3CC
:1003D000AB4200FA0EF409D9ED1901F1FF3080F0BB
:1003E0008A80AB4240F2878002393D44EB1A1FFA03
:1003F00088F5B3FBF2F002FB103345EA034500FB3E
:100400000CF3AB4207D9ED1900F1FF386FD2AB42C4
:100410006DD902383D44EB1A40EA01418FE7C1F142
:10042000200722FA07F88B4005FA01F448EA030393
:1004300020FA07FE4FEA134CFD404EEA040EB5FBCE
:10044000FCF94FEA1E440CFB19551FFA83F844EAE5
:10045000054509FB08F4AC4202FA01F200FA01FA80
:1004600008D9ED1809F1FF3043D2AC4241D9A9F1C6
:1004700002091D442D1B1FFA8EFEB5FBFCF00CFB80
:1004800010554EEA054400FB08F8A04507D9E418CA
:1004900000F1FF3529D2A04527D902381C4440EA93
:1004A0000940A4EB0804A0FB02894C45C6464D4612
:1004B00015D312D056B1BAEB0E0364EB050404FA5F
:1004C00007F7CB401F43CC40376074600021BDE884
:1004D000F0871846F8E69046E0E6C245EAD2B8EB67
:1004E000020E69EB03050138E4E72846D7E74046EA
:1004F00091E78146BEE7014678E702383C4445E78C
:10050000084608E7A8F102083D442BE7704700BF02
:1005100008B50B4B1A6842F400721A601A6842F46C
:1005200080621A601A6842F480721A60032000F038
:100530002FF8002005F0FAFF05F024FF002008BD89
:10054000003C0240034A044B11681B780B441360C3
:10055000704700BF20C2002000000020014B186837
:10056000704700BF20C2002038B50446FFF7F6FFF1
:10057000631C1CBF054B1B78054618BFE418FFF72A
:10058000EDFF401B8442FAD838BD00BF00000020B8
:10059000074AD36823F4E0631B041B0C43F0BF63DA
:1005A000000243F4003300F4E0600343D36070477B
:1005B00000ED00E0174B30B5DC68C4F30224C4F151
:1005C0000703251D042B28BF0423062D4FF001052A
:1005D00005FA03F303F1FF338CBF033C00241940F9
:1005E000A14005FA04F4013C2240002842EA01023D
:1005F0004FEA0212ADBF00F1604000F00F00064B61
:1006000000F56140B5BFD2B2D2B21A5480F80023CF
:1006100030BD00BF00ED00E014ED00E0002808DB75
:100620004209012300F01F0003FA00F0014B43F8D8
:100630002200704700E100E00368DAB223F47F7320
:1006400023F003031821103AB2FBF1F20449032A04
:1006500088BF0433895C8365C165806D704700BFC6
:100660003867000870B50446FFF778FF0546002C90
:1006700071D0002384F834302268022384F83530A6
:10068000136823F00103136021680B68D8073CD47A
:100690000B68324D6268A0691D40A3681343E2688D
:1006A00013432269134362691343E269034313430B
:1006B000226A1343626A042A43EA050301BF266BD8
:1006C000E56A35432B430B604B69042A23F007038B
:1006D00043EA02030BD1A26AE56A13433DB1F8B9BC
:1006E000012A2DD001D3022A01D1EA012BD44B617A
:1006F0002046FFF7A1FFE26D3F2393408360002077
:100700000123606584F8353070BDFFF727FF401B7B
:100710000528B9D920236365032084F8350070BD0E
:10072000B0F5005F13D1032AE1D801A050F822F000
:1007300047070008EB0600084707000841070008C4
:10074000B5F1C07FD3D1402363650120E5E7022ADC
:10075000F9D9032AC8E7012070BD00BF3F8010F01F
:1007600070B590F83440012C36D0012480F8344024
:1007700090F83540866D012C4FF000054FF00204D3
:1007800028D180F8354004684565256825F4802522
:10079000256063608368402B0EBFA260A160E260A9
:1007A000C26D08BFE1603F239340B360236843F00C
:1007B00016032360636943F080036361036C1BB11C
:1007C000236843F008032360236843F00103236098
:1007D000002070BD80F83450022070BD90F8353094
:1007E000022B03D080234365012070470268052354
:1007F00080F83530136823F0010313600020704740
:10080000F7B5002301935A4B856D1F68C36D2E68A1
:1008100008229A40164204460CD001680868400736
:1008200008D5086820F004000860AA60626D42F0F4
:100830000102626501229A40164208D02168496986
:10084000090641BFAA60626D42F00202626504229D
:100850009A40164208D021680968880741BFAA60FB
:10086000626D42F00402626510229A40164210D076
:100870002368196809070CD5AA601A68500335D592
:100880001B68190301D4236C00E0A36C0BB1204654
:100890009847E16D20228A40164238D023681868B4
:1008A000C60634D5AA6094F83520052A1A6825D1E1
:1008B00022F016021A605A6922F080025A61226CF4
:1008C0000AB9A26C1AB11A6822F008021A603F2312
:1008D0008B40AB60002384F83430012384F835303A
:1008E000236D0BB12046984703B0F0BD1A68D205BE
:1008F0005EBF1A6822F008021A60C4E7500328D5C8
:100900001B68190332D4636C0BB120469847636DA2
:10091000002BE9D0636DDA0719D50523226884F826
:100920003530136823F0010313604FF41653B7FBFF
:10093000F3F7019B01339F42019302D31368DB0756
:10094000F7D4002384F83430012384F83530E36C85
:10095000C7E71A6812F4807208D1196821F01001F3
:100960001960012384F8342084F83530E36BCBE739
:100970000C000020084910B50C6924F440740C6187
:100980000C6944F440740C610C6944F001040C617E
:100990000260436010BD00BF003C0240074B1A6973
:1009A00022F440721A611A6942F400721A611A69DB
:1009B00042F001021A610160704700BF003C024032
:1009C000074B1A6922F440721A611A6942F4807264
:1009D0001A611A6942F001021A610180704700BF72
:1009E000003C0240204BDA68D00606D51F49CA6990
:1009F00042F01002CA611022DA60DA68910606D568
:100A00001A49CA6942F00802CA612022DA60164B0C
:100A1000DA68520606D51549CA6942F00402CA616D
:100A20004022DA60DA68100606D51049CA6942F039
:100A30000202CA618022DA600B4BDA68D10507D561
:100A40000A49CA6942F00102CA614FF48072DA6051
:100A5000DA68920706D50549CA6942F02002CA61E0
:100A60000222DA60704700BF003C024024C200202E
:100A7000064B1A69002ABFBF054A5A6002F1883244
:100A80005A60BABF1869C00F00207047003C02408E
:100A900023016745034A136943F0004313610020B3
:100AA000704700BF003C0240F8B5124B124C0022C8
:100AB0000546DA61FFF752FD26460746E368DA038A
:100AC0000CD4E368DB0744BF0123E360F06810F453
:100AD000F97002D0FFF786FF0120F8BD691CEDD048
:100AE0000DB90320F8BDFFF739FDC01B8542E5D2E3
:100AF000F7E700BF24C20020003C02402DE9F0418E
:100B0000204D98462B7E012B07460E46144635D0C5
:100B100001234CF250302B76FFF7C6FFB0B9CFB9A6
:100B2000194B1A6922F440721A611A691A611A691A
:100B3000E4B242F001021A6134704CF25030FFF717
:100B4000B3FF114A136923F00103136100232B76CD
:100B5000BDE8F081012F04D1A1B23046FFF730FF8C
:100B6000EBE7022F04D121463046FFF717FFE4E7F9
:100B7000224643463046FFF7FDFEDEE70220BDE891
:100B8000F08100BF24C20020003C02400C4B1A69D7
:100B900022F440721A6103291A690BD142F400420F
:100BA00042F004021A611A6942F4803242EA0020DB
:100BB000186170470129F3D042F40042F2E700BF08
:100BC000003C024039B101291FD002290CBF4FF46B
:100BD00000714FF440710E4B1A6922F440721A6191
:100BE0001A69114319611A6922F0F8021A611A6927
:100BF0000B2842F0020288BF043042EAC0001861AC
:100C00001A6942F480321A6170474FF48071E2E74A
:100C1000003C0240144B1A6891050FD51A6822F463
:100C200000721A601A6842F400621A601A6822F4AC
:100C300000621A601A6842F400721A600A4B1A685D
:100C400052050FD51A6822F480621A601A6842F4BD
:100C500080521A601A6822F480521A601A6842F4AC
:100C600080621A60704700BF003C02402DE9F843E3
:100C7000254E337E012B0446884642D001234CF298
:100C800050303376FFF710FF0546C0B94FF0FF3301
:100C9000C8F800302368012B16D16168207CFFF76B
:100CA00075FF4CF25030FFF7FFFE184A136923F42A
:100CB000004323F0040305461361FFF7ABFF002355
:100CC00033762846BDE8F883A768DFF84090E368EC
:100CD000A26813449F42F0D2217C3846FFF772FF8E
:100CE0004CF25030FFF7E0FED9F8103023F0FA0351
:100CF000C9F8103018B1C8F800700546DDE70137B3
:100D0000E5E70225DDE700BF24C20020003C0240E9
:100D10002DE9F04F85B00B68DFF8C4816E4ADFF82B
:100D2000C491019300234FF0010E019C0EFA03FEC3
:100D30000EEA0406B64540F0B6804C6824F0100771
:100D4000022F16D14FEAD30A00EB8A0A03F0070BF1
:100D5000DAF820504FEA8B0B4FF00F0C0CFA0BFC1B
:100D600025EA0C0C0D6905FA0BF545EA0C05CAF8E5
:100D700020504FEA430A0325D0F800B005FA0AF5DF
:100D8000ED4304F0030C0BEA050B0CFA0AFC013FDF
:100D90004CEA0B0C012FC0F800C011D8876807EA95
:100DA000050BCF6807FA0AFC4CEA0B078760476817
:100DB00027EA0E0EC4F300179F4047EA0E0747606C
:100DC000C7683D408F6807FA0AF73D43C560E500F4
:100DD00069D54FF0000BCDF80CB0D8F844703F4DFA
:100DE00047F48047C8F84470D8F8447007F4804747
:100DF0000397039F23F0030707F1804707F59C370C
:100E000003F0030CD7F808A04FEA8C0C4FF00F0E3C
:100E10000EFA0CFEA8422AEA0E0E4BD005F58065AC
:100E2000A84249D005F58065A84247D005F5806500
:100E3000A84245D005F58065A84243D0484543D037
:100E400005F50065A84241D005F58065A8423FD070
:100E500005F58065A8423DD005F58065A84214BF20
:100E60000A25092505FA0CF545EA0E05BD60156849
:100E7000F74314F4803F0CBF3D403543156055687F
:100E800014F4003F0CBF3D4035435560956814F4A1
:100E9000801F0CBF3D4035439560D568A40254BF08
:100EA0003D403543D5600133102B7FF43CAF05B096
:100EB000BDE8F08F5D46D5E70125D3E70225D1E7F0
:100EC0000325CFE70425CDE70525CBE70625C9E7B0
:100ED0000725C7E70825C5E7003C014000000240A0
:100EE00000380240001402400AB1816170470904D1
:100EF000FBE7436931EA030308BF090481617047D6
:100F000037B500230193184B184C1A6C42F08052ED
:100F10001A641B6C03F080530193019B144B012254
:100F20001A60FFF71BFB05466368DA030BD5114B0C
:100F30000E4C01221A60FFF711FB054663689B0304
:100F40000AD5002006E0FFF709FB401BB0F57A7FC9
:100F5000EAD9032003B030BDFFF700FB401BB0F51A
:100F60007A7FEBD9F5E700BF0038024000700040FF
:100F700040000E4244000E42134908B58B6803F04E
:100F80000C03042B03D0082B03D0104808BD1048D5
:100F900008BD4A684B68496813F4800314BF0C48C5
:100FA0000A48C1F3881118BF002302F03F02A1FBD9
:100FB0000001FFF725F9044B5B68C3F301430133DC
:100FC0005B00B0FBF3F008BD003802400024F400E1
:100FD00040787D012DE9F0410D46044610B901200D
:100FE000BDE8F081444B1A6802F00F028A4228D310
:100FF00021688F072DD4C80740D43F4B1A6802F0F0
:101000000F02954266D3226851076CD4130707D5A7
:101010003A4A2169936823F4604343EAC103936029
:10102000FFF7AAFF354B364A9B68C3F30313D35C23
:10103000D840344B1860002005F078FA0020BDE855
:10104000F081CAB21A701B6803F00F039942C6D12F
:10105000CEE72A4B11F0040F1EBF9A6842F4E0520B
:101060009A600E0742BF9A6842F460429A609A689A
:10107000A06822F0F00202439A60BCE762681F4B4E
:10108000012A1DD11B6813F4003FA8D01B4EB36882
:1010900023F003031343B360FFF760FA41F288388B
:1010A0000746B368626803F00C03B3EB820FA4D069
:1010B000FFF754FAC01B4045F3D90320BDE8F08187
:1010C000911E01291B6802D813F0007FDDE713F0A1
:1010D000020FDAE7EAB21A701B6803F00F039D42B1
:1010E0007FF47DAF8FE70549E0688B6823F4E05318
:1010F00003438B608AE700BF003C02400038024097
:10110000FC6700080C000020044B054A9B68C3F3F1
:101110008223D35C034A1068D840704700380240ED
:101120000C6800080C0000200F2303600B4B9A682A
:1011300002F0030242609A6802F0F00282609A684C
:1011400002F4E052C2609B68DB0803F4E0530361E1
:10115000034B1B6803F00F030B607047003802401D
:10116000003C0240F7B502680446100608D5A849BD
:10117000606BD1F88C3023F000630343C1F88C30EE
:10118000D10508D5A249A06BD1F88C3023F080534B
:101190000343C1F88C3012F0430F72D1236813F06F
:1011A0000C0F00F0BF809B4D994E00232B60FFF782
:1011B000D5F9074633689A0000F1F9802268530791
:1011C0001AD5D6F88830D6F8881003F4403301F0E9
:1011D000E0410B43216943EA8113A16943EA0163BA
:1011E000C6F88830D6F88C30616A23F4F853013998
:1011F00043EA0123C6F88C30170719D58449D1F882
:101200008830D1F8880003F4403300F07060034365
:10121000206943EA8013E06943EA0073C1F888302B
:10122000D1F88C30A06A23F440330343C1F88C30EA
:10123000160617D5636BB3F1006F13D17449D1F85B
:101240008830D1F8882003F0706302F0E042134345
:10125000226943EA821362695208013A43EA02436F
:10126000C1F8883001232B60FFF778F9684D0646F6
:101270002B68980058D4FFF771F9801B0228F7D922
:101280004DE0654D624E00232B60FFF767F907467E
:1012900033681B013ED42168C80706D5A36862687D
:1012A0001B0743EA8213C6F884308A0715D5584ACB
:1012B000E368D2F8840066681B0600F0E04043EA69
:1012C00086130343C2F88430D2F88C00236A20F0DE
:1012D0001F00013B0343C2F88C304B060AD5E3687C
:1012E00062681B0643EA8213A26843EA0273484A13
:1012F000C2F8843001232B60FFF730F9444D0646D5
:101300002B681F013FF54AAFFFF728F9801B022821
:10131000F6D904E0FFF722F9C01B0228B8D9032050
:1013200003B0F0BD18063DD42368990630D50023DC
:101330000193374B394D1A6C42F080521A641B6C82
:1013400003F080530193019B2B6843F480732B605F
:10135000FFF704F906462B68D9052FD52C4D2B6FC6
:1013600013F4407330D1E36A03F44072B2F5407F66
:10137000274A48D1916823F0704021F4F81120F4F5
:10138000407001439160116FC3F30B030B4313676C
:10139000206810F010001FBF214B94F830201A6015
:1013A0000020BDE7636BB3F1006FBDD1FBE6FFF733
:1013B000D5F8C01B02287FF6FDAEB0E7FFF7CEF8E8
:1013C000801B0228C7D9AAE7E26A02F4407293425E
:1013D000C9D02B6F134A0121116023F440730021FF
:1013E00011602B672B6FDA07BDD5FFF7B7F841F215
:1013F000883706462B6F9B07B5D4FFF7AFF8801BE5
:10140000B842F7D98BE7916821F4F811BAE700BF29
:1014100000380240700047426800474200700040B8
:10142000E0114742400E474270B54E4CFFF796F828
:10143000236843F0010305462360236898076CD5B1
:10144000236843F080032360FFF788F80023A3603C
:10145000444C054641F28836A36813F00C0F63D163
:10146000FFF77CF8236823F4502323603D4C0546A6
:10147000236899035ED4FFF771F8236823F0807323
:101480002360384C054623689A0159D4FFF766F863
:10149000236823F080632360324C054623681B01D8
:1014A00054D4FFF75BF8236823F0805323602D4C5E
:1014B0000546206810F000504ED12B4B6360103B66
:1014C000C4F88430C4F88830E368284A23F4F85319
:1014D000E360E36823F40053E360E36823F48043AC
:1014E000E360E36843F41F03E360E36843F400133D
:1014F000E360E36843F48003E360636F23F0010378
:101500006367636F43F080736367194B1A6005F07C
:101510000DF8003018BF012070BDFFF71FF8401B09
:1015200002288AD9032070BDFFF718F8401BB0428B
:1015300092D9F7E7FFF712F8401B642898D9F1E732
:10154000FFF70CF8401B02289DD9EBE7FFF706F8E0
:10155000401B0228A2D9E5E7FFF700F8401B02284C
:10156000A7D9DFE700380240103000240024F4003F
:101570000C00002003682DE9F341DD07044610D478
:10158000236898075BD423681A0700F19D802368BD
:101590005B0700F1BB80A269002A40F01C8100209B
:1015A00015E0A74B9A6802F00C02042A07D09A684B
:1015B00002F00C02082A0DD15B6859020AD5A04B33
:1015C0001B689A03DCD56368002BD9D1012002B0D7
:1015D000BDE8F08163689A4DB3F5803F11D12B6867
:1015E00043F480332B60FEF7B9FF954D06462B6818
:1015F0009B03C5D4FEF7B2FF801B6428F7D90320F4
:10160000E5E7B3F5A02F04D12B6843F480232B60CA
:10161000E5E72A6822F480322A602A6822F48022D0
:101620002A60002BDFD1FEF799FF06462B689F0347
:10163000A6D5FEF793FF801B6428F7D9DFE7804B20
:101640009A6812F00C0F07D09A6802F00C02082A70
:1016500011D15B685E020ED4794B1A68950702D5EA
:10166000E268012AB2D11A68216922F0F80242EA3E
:10167000C1021A6087E7E268724BB2B101221A60B8
:10168000FEF76CFF6E4D06462B68980707D52B6852
:10169000226923F0F80343EAC2032B6073E7FEF7E5
:1016A0005DFF801B0228EFD9A9E71A60FEF756FFFD
:1016B000634D06462B6899077FF565AFFEF74EFF31
:1016C000801B0228F6D99AE762695F4B7AB1012242
:1016D0001A60FEF743FF5A4D06466B6F9F073FF5B2
:1016E00056AFFEF73BFF801B0228F6D987E71A604A
:1016F000FEF734FF524D06466B6F98077FF547AFF4
:10170000FEF72CFF801B0228F6D978E74C4B1A6CA9
:1017100012F0805228D101921A6C42F080521A6461
:101720001B6C03F080530193019B0126474D2B68EE
:10173000D9051BD5A368424D012B27D12B6F43F050
:1017400001032B67FEF70AFF3D4D074641F288383B
:101750002B6F9B0739D5002E3FF41DAF384A136C11
:1017600023F08053136416E70026DFE72B6843F469
:1017700080732B60FEF7F2FE07462B68DA05D9D49A
:10178000FEF7ECFEC01B0228F7D938E7052B04D181
:101790002B6F43F004032B67D0E72A6F22F001027E
:1017A0002A672A6F22F004022A67002BCAD1FEF7AB
:1017B000D5FE41F2883807462B6F9807CBD5FEF748
:1017C000CDFEC01B4045F7D919E7FEF7C7FEC01B89
:1017D0004045BDD913E71A4DAB6803F00C03082B45
:1017E0003FF4F4AE1A4E0023022A336038D1FEF7DC
:1017F000B5FE07462B6899012CD4226AE36913438E
:10180000626A43EA8213E26A43EA0263226B43EAB2
:101810000273A26A0A4C5208013A43EA02436B601F
:1018200001233360FEF79AFE054623689A013FF5CF
:10183000B6AEFEF793FE401B0228F6D9DFE600BFE6
:101840000038024000004742800E474200700040CE
:1018500060004742FEF782FEC01B0228CAD9CEE6CE
:10186000FEF77CFE04462B689B017FF598AEFEF7E1
:1018700075FE001B0228F6D9C1E600BF836B1A680B
:10188000D36B43F48073D36370472DE9F04389B081
:1018900005460E46FEF762FE0023814608212868B1
:1018A0000093019300F0BBFF044640BB296D2868FC
:1018B000090401F0BFF8044608BB4FF0FF33029360
:1018C00008230393302304930223059306900123F6
:1018D00002A92868079300F08FFF286801F0DBF861
:1018E000044660B9074640F22A482868436B13EA69
:1018F000080F436B07D0190718D5082484632046C6
:1019000009B0BDE8F0839B0207D500F0B7FE08AB35
:1019100003EB8703013743F8200CFEF71FFEA0EB13
:1019200009000130E1D14FF00044E8E7436B9A072A
:1019300001D50224E2E7436B9B0601D52024DDE7B5
:1019400040F2FF538363009B1BBA7360019B1BBA79
:101950003360D4E72DE9F043164687B00546984634
:101960000A4639B9836B43F00063AB63012007B0CB
:10197000BDE8F08390F83400C4B2012C68D1EF6D5B
:1019800006EB08000023B842AB6303D9AB6B43F00E
:101990000073EAE72F68032185F83410FB62F86BC7
:1019A0002C4940F49570F863E86B4FEA4829C1630D
:1019B0002949C164036507F180014FEA9903FEF7E5
:1019C000CFFE264B28681C606B6C012B4FF0FF3359
:1019D0008DE808024FF0900302934FF00203039347
:1019E00069464FF000034FF0010418BF76020493DC
:1019F000059400F001FF4FF40071286800F00FFF1C
:101A000048B12B6840F2FF529A63AB6B1843A8634E
:101A100085F83440AAE7B8F1010F12D982232B636D
:101A20003146286800F02BFF0028A0D02B6840F238
:101A3000FF529A63AB6B1843A863012085F834000A
:101A400095E781232B633146286800F000FFEBE720
:101A500002208CE7631B0008C12000088C8525420A
:101A60002DE9F041044686B015461E460F4639B9A9
:101A7000836B43F000638363012006B0BDE8F0810F
:101A800090F83400C0B2012862D1E16DEB18002259
:101A90008B42A26304D9A36B43F00073A363ECE70A
:101AA00020682C49032384F83430C262C36B43F0AE
:101AB0001A03C363236CD9632749D9641A65636C1D
:101AC0004FF40071012B18BF6D0200F0A8FE50B159
:101AD000236840F2FF529A63A36B1843A06301206E
:101AE00084F83400C9E7012E0FD9A02323632946C7
:101AF000206800F0F4FE0546226868B140F2FF530A
:101B00009363A06B0543A563E9E79023236329460C
:101B1000206800F0CCFEEEE7104B206C4FF001087F
:101B20007602C3F800808032B3083946FEF718FE0B
:101B30004FF0FF338DE848006946902320680293F8
:101B400003950495CDF8148000F056FE284694E7DE
:101B5000022092E77D180008C12000088C852542EC
:101B6000704710B5846B236B822B09D1206800F07D
:101B7000CFFE28B1A36B1843A0632046FFF7F0FF08
:101B80002368DA6A22F00802DA6240F2FF529A63AE
:101B9000012384F83430204604F045F810BD436E2C
:101BA0009A0F0A70C3F383624A70C3F301628A70AA
:101BB000C3F30742CA70C3F30722DBB20A714B7149
:101BC000836E1A0E1201CA80CA8830B592B2C3F36E
:101BD00003542243CA80C3F303420A72C3F30722A9
:101BE000D4094C72C2F380148C72C2F34014CC72CC
:101BF000C2F300140C7300244C73446C002C40F0AE
:101C00008380920202F440620A610A699B0003F435
:101C10007F7313430B61C26E0B6943EA92730B61CE
:101C2000C2F3C2630B75C2F302634B75C2F3425336
:101C30008B75C2F38243CB75D30B03F006030B768F
:101C40000C7EC2F30723C2F3C03222430A760A692C
:101C50000C7E01320234A24042650D7A0124AC4070
:101C60008465640A6243C2654FF400720266C3F37E
:101C700080125B0003F07E034A768B76C36E8A7E09
:101C8000C3F3C014224303F07F038A76CB76036F3D
:101C9000DA0F0A77C3F341724A77C3F382628A7715
:101CA0009A0D02F00C02CA77CA7FC3F38150024337
:101CB000CA77C3F3405281F820200020C3F30042CA
:101CC00081F8210081F82220C3F3C03281F823205B
:101CD000C3F3803281F82420C3F3403281F82520F9
:101CE000C3F3003281F82620C3F3812281F8272034
:101CF000C3F30122C3F3460381F8282081F8293079
:101D0000012381F82A3030BD012C1AD11B0403F4C1
:101D10007C130B61C36E0A691C0E42EA04220A613D
:101D20000C69C3F3074222430A610A69920202F571
:101D300080624265C2654FF40072C3F30723826577
:101D400094E7036840F2FF529A63836B43F0805339
:101D50008363012380F83430184630BDF0B599B064
:101D6000002576230C930A950B950AAB044693E85D
:101D700007008DE807006F4E07950895099507AB9A
:101D80000ECB206800F05EFC01273560206800F073
:101D90007DFC37600220FEF7E7FB2068069500F027
:101DA000E9FD064668B9206800F00CFE80B3A66421
:101DB0004FF6FF75069B5A1CAB42069208D14FF0B6
:101DC0008076012084F83400A16B0E43A66381E085
:101DD0000021206800F02EFE014610B14FF0805621
:101DE000EFE7206800F03EFE01460028F6D12068AB
:101DF00000F067FC0028DDDA00236364206801231B
:101E0000ADF8163000F046FC10BB4FF080656BE07B
:101E1000A7644FF6FF75069B5A1CAB420692CED0C4
:101E20000021206800F006FE06460028C9D14FF0C8
:101E30008041206800F016FE06460028C1D1014608
:101E4000206800F03EFCC30FE5D04200D4D5D4E7B3
:101E5000636C032B1AD0206800F035FE054600287D
:101E600042D10146206800F02CFC04216067206804
:101E700000F027FC0821A067206800F022FC0C215C
:101E8000E067206800F01DFCC4F88000636C032B41
:101E900022D1636C032B2ED10421206800F011FCA9
:101EA000000DE0640DA92046FFF779FE226D206841
:101EB0001204002300F046FD0546A8B904F1100302
:101EC00093E807008DE80700231D0ECB206800F083
:101ED000B9FB284619B0F0BD0DF11601206800F0DD
:101EE0001DFE05460028D4D0012084F83400A36BE1
:101EF0001D43A563EEE7BDF81610216520680904AF
:101F000000F0F6FD05460028EED10146206800F0FD
:101F1000D8FB04216066206800F0D3FB0821A0668E
:101F2000206800F0CEFB0C21E066206800F0C9FBC1
:101F30002067B1E7A080254210B50446A0B190F813
:101F4000343003F0FF0213B9027704F03DFA0323A3
:101F500084F834302046FFF701FF00200123A063FE
:101F6000206384F8343010BD012010BD436C0B6039
:101F7000836C4B60C36C8B60036DCB60436D0B61F6
:101F8000836D4B61C36D8B61036ECB610020704725
:101F900070B5032380F83430436C032B8AB00446B9
:101FA0000E4602D0B1F5805F03D1A36B43F080539E
:101FB00056E0B1F5006F2DD1002100680491059124
:101FC00000F07FFB800120D404A92046FFF75DFCD0
:101FD00060B9059B59031AD5216D2068090400F0EA
:101FE00029FD18B90221206800F01CFEA36B1843DC
:101FF000A063A56B002D35D0236840F2FF5201206D
:102000009A6384F834000AB070BD3046EEE74FF0B2
:102010008060EBE709BB00680491059100F051FB7B
:10202000820114D404A92046FFF72FFC60B9059B58
:10203000DB030FD5216D2068090400F0FBFC18B903
:102040000146206800F0EEFDA16B0843D0E74FF495
:102050000060F9E74FF08060F6E7836B43F00063C0
:10206000A363C6E763680493A3680593E3680693D4
:1020700063690893A369099307960AAB13E90700FC
:102080008DE8070004AB0ECB206800F0DBFA0123DB
:1020900084F834302846B6E7016D10B509040446CB
:1020A000006800F08FFD014628B9206800F009FBA8
:1020B000C0F3432010BDA36B1943A1630020F7E7D1
:1020C00010B5846BE36B5B6D012B03D0236C5B6DF0
:1020D000012B1BD1236840F2FF529A63DA6B22F482
:1020E0009D72DA63A36B43F08043A3632046FFF73E
:1020F000D3FF0538C0B2012805D8206800F008FCDD
:10210000A36B1843A063012384F834302046FFF703
:1021100027FD10BD38B5846B236C0BB100232364FD
:10212000E56BC5B92046FFF7B7FF05380123C0B2FC
:102130009842A56384F834300DD8206800F0E8FB9D
:10214000A36B1843A063A36B204613B103F063FD98
:1021500038BDFFF705FD38BD38B5846BE36B0BB1B7
:102160000023E363256CC5B92046FFF795FF0538CA
:102170000123C0B29842A56384F834300DD820689A
:1021800000F0C6FBA36B1843A063A36B204613B1FA
:1021900003F041FD38BDFFF7E3FC38BD70B50446E0
:1021A0000068436BDB054DD54FF480738363C36BCD
:1021B00023F49D73C363236B13F0080F236B1ED0AE
:1021C0009E0702D4236B9D0608D500F0A1FB28B121
:1021D000A36B1843A0632046FFF7C2FC236840F2BC
:1021E000FF529A63012384F83430236BD9072046C9
:1021F00002D4236B9A0722D503F015FD70BD1B0690
:1022000040F19B80236B9E0608D500F081FB28B12E
:10221000A36B1843A0632046FFF7A2FC236BDD07E6
:1022200000F18B80236B980700F187802268D36AC6
:1022300023F00803D362012384F83430204603F0EE
:10224000EEFC70BD436B590410D5256A4FF48043F2
:10225000836305F1200629462068043500F011FA51
:10226000AE42F8D1236A2033236270BD436B1A0457
:1022700010D5A56A4FF400432E1F83631C352068D8
:1022800000F0FCF946F8040FAE42F8D1A36A2033FF
:10229000A36270BD436B13F03A0F4ED0436B9B07A4
:1022A00042BFA36B43F00203A363436B1E0742BF0D
:1022B000A36B43F00803A363436B9D0642BFA36B6C
:1022C00043F02003A363436BD90642BFA36B43F0E3
:1022D0001003A36340F2FF538363C36B23F49D7326
:1022E000C363236B1A061FD5206C48B1134B0365DB
:1022F000FEF774FA08B3206CBDE87040FFF70ABF20
:10230000E06B48B10E4B0365FEF768FAA8B1E06BCD
:10231000BDE87040FFF720BF0123A06384F834308C
:10232000204603F078FC70BD236B1B0705D5012305
:1023300084F834302046FFF713FC70BD15210008E7
:102340005921000870470368DA6842F00102DA6038
:102350009A6802F00702062A1EBF1A6842F00102BC
:102360001A600020704770477047704770470368D5
:102370001A69910710B504460ED5DA6892070BD595
:102380006FF002021A619B6901229B07027777D0E6
:10239000FFF7EAFF0023237723681A69500710D557
:1023A000DA6851070DD56FF004021A619B690222A9
:1023B00013F4407F2277204668D0FFF7D5FF002333
:1023C000237723681A6912070FD5DA6810070CD52E
:1023D0006FF008021A61DB69042299072277204610
:1023E0005AD0FFF7C1FF0023237723681A69D2066A
:1023F00010D5DA68D0060DD56FF010021A61DB69CE
:10240000082213F4407F227720464BD0FFF7ACFF21
:102410000023237723681A69D10708D5DA68D20721
:1024200005D56FF001021A61204603F065FE2368AE
:102430001A69100608D5DA68110605D56FF0800212
:102440001A61204600F0B7F823681A69520608D5C9
:10245000DA68500605D56FF040021A612046FFF792
:1024600085FF23681A69910622D5DA6892061FD57E
:102470006FF0200220461A61BDE8104000F09AB8C3
:10248000FFF771FF2046FFF770FF83E7FFF76BFF51
:102490002046FFF76AFF92E7FFF765FF2046FFF748
:1024A00064FFA0E7FFF75FFF2046FFF75EFFAFE79F
:1024B00010BD0000304A0368904212D0B0F1804F46
:1024C0000FD0A2F57C4290420BD002F58062904280
:1024D00007D002F58062904203D002F57842904224
:1024E00019D14A6823F070031343234A904229D03C
:1024F000B0F1804F26D0A2F57C42904222D002F566
:10250000806290421ED002F5806290421AD002F59D
:102510007842904216D0194A904213D002F5806258
:1025200090420FD002F5806290420BD0A2F5983213
:10253000904207D002F58062904203D002F580629B
:10254000904203D1CA6823F4407313434A6923F0CD
:102550008003134303608B68C3620B688362064B7E
:10256000984203D003F58063984201D10B6903635D
:1025700001234361704700BF00000140004001405B
:1025800010B50446A0B190F83D3003F0FF021BB92E
:1025900080F83C20FFF7D6FE022384F83D30206807
:1025A000211DFFF787FF012384F83D30002010BD77
:1025B000012010BD70477047114B4FF4FA521B6851
:1025C000B3FBF2F241F28833534313F1FF3314D3D8
:1025D000426B12F0450FF8D0436B5B0703D5042321
:1025E000836318467047436B13F0010301D0012346
:1025F000F6E740F2FF528263F3E74FF00043F0E763
:102600000C0000200E4B4FF4FA521B68B3FBF2F2A1
:1026100041F28833534313F1FF330ED3426B12F070
:10262000450FF8D0436B13F0040315BF042340F2A9
:10263000FF5283638263184670474FF00040704733
:102640000C00002084B010B503AC84E80E0004999F
:10265000039B42680B4305990B4306990B4307996B
:102660000B430899BDE8104022F4FD420B4322F0D1
:102670007F021343436004B000207047D0F880000D
:1026800070470B68C0F88030002070470323036058
:1026900000207047006800F0030070470B6810B519
:1026A00083608C684B68C2682343CC680969234304
:1026B00022F47F620B4322F00F021343C360002019
:1026C00010BD82B014300144002301930191019B9D
:1026D000186802B070470000454B10B51B684FF4F6
:1026E000FA54B3FBF4F35A43002A4AD0436B13F075
:1026F000450F02F1FF32F7D0436B5C0703D504238B
:102700008363184610BD436B13F0010301D001230E
:10271000F6E70269D2B2914236D140F2FF52194631
:102720008263FFF7CEFF334B0340002BE9D0002834
:102730002CDB42002DD484002DD4C1002DD4020105
:102740002ED444012FD4C10130D4020231D444022A
:1027500032D4810233D4C20234D4440335D4810349
:1027600036D4C20337D4040438D4410439D48204A3
:102770003AD410F0080F14BF4FF400034FF4803325
:10278000BFE74FF00043BCE70123BAE74FF0007307
:10279000B7E74023B5E78023B3E74FF48073B0E792
:1027A0004FF40073ADE74FF48063AAE74FF4006382
:1027B000A7E74FF48053A4E74FF40053A1E74FF489
:1027C00080439EE74FF400439BE74FF4003398E7C4
:1027D0004FF4802395E74FF4002392E74FF48013E2
:1027E0008FE74FF400138CE74FF4800389E700BFB5
:1027F0000C00002008E0FFFD0B6810B543624B6839
:102800008362CC688B68C26A23430C69496923439D
:102810000B4322F0F7021343C362002010BD30B512
:1028200087B04023039300230546019110240493AD
:1028300001A94FF4806305930294FFF72FFF41F243
:10284000883221462846FFF747FF07B030BD30B534
:1028500087B040230393002305460191112404937C
:1028600001A94FF4806305930294FFF717FF41F22B
:10287000883221462846FFF72FFF07B030BD30B51C
:1028800087B040230393002305460191122404934B
:1028900001A94FF4806305930294FFF7FFFE41F214
:1028A000883221462846FFF717FF07B030BD30B504
:1028B00087B0402303930023054601911824049315
:1028C00001A94FF4806305930294FFF7E7FE41F2FC
:1028D000883221462846FFF7FFFE07B030BD30B5ED
:1028E00087B04023039300230546019119240493E4
:1028F00001A94FF4806305930294FFF7CFFE41F2E4
:10290000883221462846FFF7E7FE07B030BD0000B9
:1029100030B587B00023054601930C244022049370
:1029200001A94FF48063039205930294FFF7B6FE6A
:10293000034A21462846FFF7CFFE07B030BD00BF4F
:1029400000E1F50530B587B0402303930023054629
:102950000724049301A94FF4806301920593029424
:10296000FFF79CFE41F2883221462846FFF7B4FE6D
:1029700007B030BD10B586B00023019302930393D6
:10298000049301A94FF4806305930446FFF786FE84
:102990000B4B4FF4FA521B68B3FBF2F241F288334F
:1029A000534313F1FF3308D3626B1206F9D540F29B
:1029B000FF53A363002006B010BD4FF00040FAE7BC
:1029C0000C00002010B586B04FF4D5730193082396
:1029D0000293402303930023049301A94FF48063DF
:1029E00005930446FFF75AFE114B4FF4FA521B6849
:1029F000B3FBF2F241F28833534313F1FF3314D3A4
:102A0000626B12F0450FF8D0626B12F0040204D032
:102A10004023A363042006B010BD606B10F040009B
:102A2000F9D04023A3631046F5E74FF00040F2E7EA
:102A30000C00002030B587B04023039300230546E7
:102A400001913724049301A94FF480630593029404
:102A5000FFF724FE41F2883221462846FFF73CFE6C
:102A600007B030BD10B586B02923029341F0004174
:102A70004023039341F48011002304460191049301
:102A800001A94FF480630593FFF708FE2046FFF786
:102A9000B9FD06B010BD30B587B0002305460193DF
:102AA00033244022049301A94FF4806303920593D9
:102AB0000294FFF7F3FD41F2883221462846FFF7E2
:102AC0000BFE07B030BD10B586B0002302220446CD
:102AD000019302920493C0224FF4806301A90392F0
:102AE0000593FFF7DBFD2046FFF766FD06B010BD3E
:102AF00010B586B009230293C02303930023044634
:102B00000191049301A94FF480630593FFF7C6FD7B
:102B10002046FFF751FD06B010BD000030B587B06C
:102B20000023032201930292049340224FF4806316
:102B30000D4601A9039205930446FFF7AFFD204B14
:102B40004FF4FA521B68B3FBF2F241F2883353435D
:102B500013F1FF332BD3626B12F0450FF8D0636B88
:102B60005A0703D50420A06307B030BD616B11F094
:102B7000010101D00120F6E72369DBB2032B19D153
:102B800040F2FF53A3632046FFF79BFD10F4604320
:102B900003D1000C28801846E6E743040CD410F457
:102BA000004F14BF4FF480504FF48030DCE74FF0FB
:102BB0000040D9E70120D7E74FF40050D4E700BF29
:102BC0000C00002030B587B0402303930023054656
:102BD00001910D24049301A94FF48063059302949D
:102BE000FFF75CFD41F2883221462846FFF774FD6D
:102BF00007B030BD30B587B04023039300230546AE
:102C000001910624049301A94FF480630593029473
:102C1000FFF744FD41F2883221462846FFF75CFD6C
:102C200007B030BDFFF7E6BF034B1A1803EB800374
:102C3000107A5B685B68184754000020064B1A5CEA
:102C400042B901221A541A1803EB8003107A5B6808
:102C50001B681847002070475400002030B4054C12
:102C6000251804EB800460688468287AA44630BC88
:102C7000604700BF5400002030B4054C251804EB19
:102C800080046068C468287AA44630BC604700BFEE
:102C900054000020054B10B41C1803EB8003207A6D
:102CA0005B685DF8044B1B69184700BF54000020A7
:102CB00042884378007843EA022340EA03207047C1
:102CC0000B0A017043700B0C090E8370C1707047C2
:102CD000024400F8011B9042FBD17047154BF0B540
:102CE00000252A461C461E68A6B10768BE4212D1BE
:102CF0005F688668B7420ED19F684669B7420AD1BD
:102D0000B1B904EB02129389B3F5807F14BF0020A0
:102D10001020F0BD01250132022A03F11003E2D197
:102D20000DB10020F0BD02290CBF00201220F0BD23
:102D30001020F0BD300000201C4AF0B505680023CB
:102D400016461468AC4207D157688468A74203D17D
:102D500097684469A7421DD00133022B02F110028B
:102D6000EFD1336813B13369EBB901231C01321978
:102D7000355184684069906000205460908179B931
:102D800006EB03129289013292B206EB0316581C2D
:102D9000B281F0BD0029F3D006EB0312928912B97B
:102DA0004FF48072F1E70020F0BD00BF300000203A
:102DB000013801280ED8094A0301D118898921F464
:102DC000807080B208B1481E80B2D118888118B9CD
:102DD000D05070470220704700207047300000201C
:102DE000C3690239023B99423DBF4389006B01FB35
:102DF000030000207047C26A10B504680432A3893A
:102E0000B1FBF3F16389B1FBF3F1106830B181429A
:102E100002D3091A0832F8E75068084410BD026866
:102E200010B552B111460B4611F8014B202C0CD9AC
:102E30003A2CF8D1511C8B4202D04FF0FF3010BD1C
:102E40001278302AF9D101330360002010BD013817
:102E50000A4411F8013B00F8013F9142F9D1704753
:102E6000CA7E8B7E032843EA022301BF487D0A7D88
:102E700042EA002243EA024318467047C2F307239E
:102E80008A76CB760378032B01BF120C0A75120ADF
:102E90004A757047F8B5456B00F1380704460123C1
:102EA0002A4639464078FFF7E7FEA0B9A36A226AAE
:102EB000E070EB1A934201D30020F8BDA678012EF2
:102EC000FAD9236A60781D442A4601233946FFF760
:102ED000D3FE013EF3E70120F8BDC3780BB1FFF745
:102EE000D9BF18467047F8B50446FFF7F6FF054608
:102EF000002841D12378032B36D12779012F33D1F4
:102F000004F138060146A2893046FFF7E1FE552359
:102F100084F83632AA2384F83732522341227221B0
:102F200084F8383084F83930612384F83A3084F8F2
:102F30003B2084F81E2284F81F3284F81C1284F887
:102F40001D1204F50870A169FFF7BAFE616904F566
:102F50000970FFF7B5FE626A6078013262633B4632
:102F60003146FFF789FE2571002211466078FFF790
:102F700091FE003018BF0120F8BD436B8B4270B545
:102F800006460D4612D0FFF7A8FF044660B92A4650
:102F9000012306F138017078FFF760FE00281CBF9E
:102FA0004FF0FF3501247563204670BD0024FBE718
:102FB000002310B5C3704FF0FF3343630446FFF79F
:102FC000DCFF30BB94F8372294F8363243EA022310
:102FD0004AF6552293421ED194F83830E92B05D099
:102FE000A36B104A03F0FF13934216D104F16E0055
:102FF000FFF75EFE0C4B20F07F4098420FD004F1AB
:103000008A00FFF755FE094B984214BF02200020AA
:1030100010BD042010BD032010BD022010BD0020F3
:1030200010BD00BFEB0090004641540046415433B0
:1030300001292DE9F04704460D46174640F28A80E3
:10304000C369994280F086800378022B49D0032B14
:1030500060D0012B7ED101EB510A816A8389BAFBD2
:10306000F3F31944FFF789FF064678BBA389BAFB3F
:10307000F3F204F1380803FB12A215F001051FBF9B
:1030800018F8023003F00F013B0103F0F00314BF06
:103090000B43FBB208F80230A16A0123E3700AF186
:1030A0000109A389B9FBF3F320461944FFF765FF33
:1030B000064658B9A389B9FBF3F203FB129245B156
:1030C000C7F3071708F802700123E3703046BDE824
:1030D000F08718F80230C7F3032723F00F031F43CC
:1030E000F0E783895B08B1FBF3F3816A1944FFF7CA
:1030F00044FF06460028E9D1A1896D0004F1380299
:10310000B5FBF1F301FB135553195755C7F30727C7
:103110005F70D9E783899B08B1FBF3F3816A194497
:10312000FFF72BFF06460028D0D1A189AD0004F19E
:103130003803B5FBF1F201FB12551D442846FFF799
:10314000B7FD27F0704700F0704139432846FFF77C
:10315000B7FDB9E70226B9E70129F8B504460E46DE
:1031600068D9C369994265D20378022B32D0032B08
:1031700048D0012B5ED101EB5105816A8389B5FBF3
:10318000F3F31944FFF7F9FE10B14FF0FF30F8BD2B
:10319000A189A36AB5FBF1F201FB125222446F1C14
:1031A0002046B7FBF1F1194492F83850FFF7E5FEDD
:1031B0000028EAD1A289B7FBF2F302FB13731C4487
:1031C000F30794F8380045EA00204CBF0009C0F32B
:1031D0000B00F8BD83895B08B1FBF3F3816A1944E6
:1031E000FFF7CBFE0028D0D1A189760004F1380288
:1031F000B6FBF1F301FB13669319905D5B7840EA2F
:103200000320F8BD83899B08B1FBF3F3816A19445D
:10321000FFF7B3FE0028B8D1A289B60004F1380048
:10322000B6FBF2F302FB13663044FFF741FD20F0DA
:103230007040F8BD0120F8BD2DE9F04180460568D9
:103240000F4671B96E69F6B1EB699E4228BF01263F
:103250003446EB6901349C4218D3012E15D8002462
:1032600009E02846FFF778FF0128044637D9431CB8
:1032700004D14FF0FF342046BDE8F081EB6998425D
:10328000F9D33E46E4E70126E2E702242146D8F8D6
:103290000000FFF761FF30B1012820D00130E8D0F5
:1032A000B442D6D1DBE74FF0FF3221462846FFF784
:1032B000BFFE90B957B9EA69AB696C61023A9342B3
:1032C0000FD92B7943F001032B71D4E722463946FD
:1032D0002846FFF7ADFE0028EDD00128C9D0012413
:1032E000C9E7013BAB61ECE7F8B50D46012D074698
:1032F000114601D80220F8BD0468E3699D42F9D265
:103300002AB14FF0FF322046FFF792FE08BB294654
:103310003868FFF721FF064608B90020F8BD0128EC
:10332000E8D0431C14D0002229462046FFF780FE37
:1033300078B9E269A369911E8B4205D20133A3617A
:10334000237943F00103237196423546DFD3E4E746
:103350000120F8BD40B1A1F10B03012B04D90F29C5
:1033600002D0006900F034BE704738B50D460446FF
:10337000F0B103687BB11A78D2B18188DA889142C2
:1033800016D1186900F01BFE034630B90F202B60E0
:1033900038BD2368FBE70920F9E723685878FFF771
:1033A00043FC10F00100F4D000212068FFF7D2FFA9
:1033B00009200023EBE7826838B50023054604683E
:1033C000436192B92378022B01D9E36A73B9238947
:1033D0000BB9022038BDE36AEB61EB69AA61002BEF
:1033E000F7D038342C62002038BD13466189A0899B
:1033F00048431A460CD111462868FFF7ADFE431C1E
:1034000002460BD00128E4D9E3699842F3D3E0E700
:1034100019462046FFF7E4FCE861DEE7012038BDED
:103420002DE9F843C36905468846B3B1476920379B
:10343000B7F5001F11D20468A289B7FBF2F002FBB6
:103440001072002A4FD1A9690133EB6141B9238978
:10345000B3EB571F47D80023EB610420BDE8F88386
:103460006389013B03423ED12046FFF775FE0128E8
:10347000064602D80220BDE8F883421C02D1012092
:10348000BDE8F883E369984227D3B8F1000FE2D092
:10349000A9692846FFF7D0FE064600283DD001283E
:1034A000E8D0431CEBD02046FFF717FD80460028EC
:1034B000E5D10146A28904F13800FFF709FC314645
:1034C0002046FFF78DFC4FF0010960636389984542
:1034D00016D3636BA3EB08036363AE6131462046EA
:1034E000FFF77EFCE861A1896F6104F13803B7FB47
:1034F000F1F201FB12771F442F620020BDE8F88330
:1035000084F803902046FFF7C5FC0028B7D1636B11
:10351000013308F101086363D8E70720BDE8F883A9
:103520002DE9F843066804460B782F2B0D4601F170
:103530000101F9D05C2BF7D00023A3602B781F2B5F
:1035400059D9DFF8608104F124070B222021384685
:10355000FFF7BEFB002205F1FF3E114608201EF8D2
:10356000013F202B01F101010BD92F2B4BD1681802
:10357000411B10F801EBBEF12F0FF9D0BEF15C0F2B
:10358000F6D00D44002A54D094F82420D4F80090AA
:10359000E52A04BF052284F82420212B34BF04230C
:1035A000002384F82F302046FFF705FF002845D17F
:1035B000E1694846FFF7E1FC00283FD1236A1A7809
:1035C000002A46D0DA7A02F03F02A271DA7A1107B5
:1035D0000CD403F10B0E394613F8012B11F801CB73
:1035E0009E45A2EB0C0227D0002AF5D000212046F0
:1035F000FFF716FFDAE7802384F82F302046BDE876
:10360000F843FFF7D8BE5C2BB1D02E2B39D09042B7
:103610000FD913F0800F18BF803BDFF88C9018BFD4
:1036200018F8033019F801CFBCF1000F2ED0634514
:10363000F8D10620BDE8F883002AD7D194F82F30BE
:1036400048B104282CD113F0040F08BF0520BDE8B1
:10365000F8830420F2E75A0722D4A379DB060DD5BC
:10366000B2896069B0FBF2F306F1380102FB130383
:1036700019443078FFF7F4FBA06064E70520BDE84B
:10368000F8830B28D5D008220B2068E7A3F1610C42
:10369000BCF1190F01D8203BDBB2BB5401325EE70D
:1036A000BDE8F88340670008BF67000870B50546AD
:1036B0000668FFF780FE044628BBE9693046FFF73D
:1036C0005CFC0446F8B92B6A1B78E52B14D1E96938
:1036D0003046FFF752FC044660B901462022286AB2
:1036E000FFF7F6FA0B2205F12401286AFFF7AFFB7A
:1036F0000123F370204670BD002BE8D0012128463D
:10370000FFF78EFED7E7042C08BF0724F2E700007E
:103710002DE9F04F002385B00B600F461546FFF7EB
:103720007EFB061EC0F24681B54B53F82640002CA6
:1037300000F04281206900F042FC002840F0428104
:103740000F2005B0BDE8F08F6078FFF76DFAC10774
:1037500000F13F81002D00F0318110F00400F0D025
:103760000A20EEE7A389A3F50072B2F5606F00F2BC
:1037700045815E1E1E4040F0418131462046FFF7E4
:1037800017FC022840F0FB8004F5FF7111F8040CCF
:1037900010B10846FFF78CFA4DF826000136042ECA
:1037A00001F11001F2D100255DF82560002E00F036
:1037B000DE8031462046FFF7FBFB012800F2D8806F
:1037C00094F8442094F84330B4F80C8043EA022380
:1037D000984540F0D98094F84F3094F84E9059EACB
:1037E000032904D104F15C00FFF762FA814694F8E2
:1037F0004810C4F820904B1E012BA17000F2C48029
:1038000094F84570BBB209FB01F16381002B00F015
:10381000BB807B1E3B4240F0B78094F84A3094F85E
:1038200049A04AEA032A4FEA5813BAFBF3FB03FB09
:103830001BA39BB2A4F808A0002B40F0A58094F82D
:103840004C5094F84B0050EA052003D104F1580085
:10385000FFF72EFA94F8473094F8462052EA0322F4
:1038600000F0928012FA8BF30B449842C0F08C80E7
:10387000C51AB5FBF7F5002D00F086804FF6F57000
:10388000854200F2838040F6F577BD428CBF022767
:103890000127023532443344032FE5616662A26298
:1038A000236375D194F8632094F8623053EA0223BD
:1038B0006AD1BAF1000F67D104F16400FFF7F8F99B
:1038C000AD00E06208F1FF331D44B5FBF8F8C145D7
:1038D0005AD34FF0FF33A3616361032F4FF080038E
:1038E00023712FD194F8692094F8683043EA0223B9
:1038F000012B27D1711C2046FFF73FFB10BB94F82A
:10390000372294F83632207143EA02234AF65522D0
:10391000934217D104F13800FFF7CAF9394B9842A6
:1039200010D104F50770FFF7C3F9374B984209D15E
:1039300004F50870FFF7BCF9A06104F50970FFF702
:10394000B7F96061314A2770138801339BB2138045
:10395000E3802F4B1A68944204BF00221A601A6950
:1039600094424FF000007FF4ECAE1861E9E60320CA
:103970000135042D7FF418AF042805D13EE004285A
:103980003CD001287FF61CAF0D20DAE6032780E744
:10399000BAF1000FF8D0022F4FEA450018BF4019C6
:1039A0000A4418BF05F00105E2620CBF054605EBAD
:1039B000500587E70B20C4E60C20C2E62846C0E687
:1039C0000320BEE63C60237805F0FE05002B7FF463
:1039D000BBAE0023F0B223706070FFF72FF9C2076F
:1039E000EED415B143073FF5BBAE04F10C02022142
:1039F0006078FFF74FF900283FF4B4AE0120A0E64D
:103A00002C0000205252614172724161500000202E
:103A100030000020F0B585B01646019004A8009152
:103A200040F8041DFFF7FBF9071E35DB1C4D55F868
:103A30002740A4B11B4B20691A68944204BF00229E
:103A40001A601A69944204BF00221A6100F0B2FAA7
:103A500018B90224204605B0F0BD00232370019957
:103A600089B9019C45F82740002CF3D0012E15D1CF
:103A700001A900226846FFF74BFE04460146019863
:103A8000FFF768FCE6E7002301F8103BF8B200F00E
:103A900082FA0028DDD0E4E70B24DBE70024D9E735
:103AA0002C000020300000202DE9F04790B0904617
:103AB00001910446002800F0D58002F03F052A4617
:103AC00003A901A8FFF724FE074638BB10AE039BED
:103AD00046F8303D01993046FFF722FD58B99DF96F
:103AE0003F30002B1EDB15F03E0F14BF01210021DB
:103AF0003046FFF7F3F818F01C0F73D0A0B104287C
:103B000009D1754B1A68002A00F0E2801B69002B6E
:103B100000F0DE80122045F0080570B1002323601C
:103B2000074695E00620E6E79DF8163013F0110FE2
:103B300063D118F0040F40F0C58028073CD502F08F
:103B400076F8024601460C980E30FFF7B9F80C984B
:103B500011461630FFF7B4F80C9BDDF80C902022CC
:103B6000DA72DDF830A099F800005146FFF778F9D5
:103B70000022514680464846FFF780F90C9B002200
:103B80001A775A779A77DA77039B0121D970B8F1BF
:103B9000000F11D041463046D3F83490FFF7A4FB14
:103BA0000028BBD149460398FFF7E7F9039A08F1CB
:103BB000FF3353610028B1D1039B28075B6B63621D
:103BC00048BF45F0400515F0FE0F0C9BA36214BFE3
:103BD000012100213046FFF7AFF82061002843D1D2
:103BE00002209BE7002899D19DF81630DA066BD4A5
:103BF00018F0020FE0D0DB07DED507208EE7206843
:103C0000FFF7AAFA012801462AD9421C5042504126
:103C1000A5EB0805002851D0E16100287FF47EAFB4
:103C2000DDF80C80B8F80C30B5FBF3F203FB12554D
:103C300075B14046FFF7D4F80028D1D00244226283
:103C40000123314698F80100FFF708F800283DD11C
:103C500039460398FFF77EFB384610B0BDE8F08781
:103C60000220D5E70927F7E7039EDDF8308030789A
:103C70004146FFF7F5F8A06008F11C00FFF718F8BF
:103C8000F3882660002104F13006E060A380E16241
:103C9000257561752162A1614FF480523046FFF7AE
:103CA00017F8AB06D4D5E568002DD1D0039BA168E9
:103CB0005A89B3F80C80A56108FB02F8A8459ED389
:103CC0000020A9E7082029E7042027E7012025E7AD
:103CD0003046FFF7EBFC1EE7300000202DE9F04FE7
:103CE0009B4685B000238946CBF8003003A90546E2
:103CF0001746FFF73AFB044608B96C7D14B121461C
:103D0000039848E02B7DDA0708D407210398FFF7D2
:103D100021FB0724204605B0BDE8F08FEB68AE69B3
:103D20009E1BBE4205F1300328BF3E4600930EB9EC
:103D30003146E5E70398A9698389B1FBF3F203FBF8
:103D40001213002B40F081804389013B1340019303
:103D500016D129B9A86801280DD802246C75CEE7C0
:103D6000EB6A1BB12846FFF746F8F4E7E9692868D3
:103D7000FFF7F2F9EFE7431C01D10124EEE7E86118
:103D8000DDF80CA0E9695046FFF72AF830B90224A3
:103D90006C7521465046FFF7DDFABBE7019BBAF888
:103DA0000C80B6FBF8F81F18B8F1000F30D0019A5C
:103DB000BAF80A309AF8010042449A4284BF019A44
:103DC000A3EB020843463A464946FEF747FF002860
:103DD000D3D195F91430002B0BDA286AC01B80452B
:103DE00007D9039B9A8922B1009902FB0090FFF743
:103DF0002EF8039B9F8908FB07F7AB693B44AB6137
:103E0000DBF800303B44B944CBF80030F61B8EE7BA
:103E10002A6A974218D095F91430002B0BDA012347
:103E200000999AF80100FEF727FF0028A5D12B7D05
:103E300003F07F032B7503980099407801233A46DD
:103E4000FEF70CFF002898D12F62039BB3F80C807B
:103E5000AB69B3FBF8F108FB1131A8EB0108B045E1
:103E6000474628BF3746002FC7D0009B3A46194423
:103E70004846FEF7ECFFC0E7F7B501A90446FFF797
:103E800074FA0546002842D1237D5A063FD51B0609
:103E900014D50198226A4078012304F13001FEF71D
:103EA000EBFE38B101210198FFF754FA01252846AD
:103EB00003B0F0BD237D03F07F03237501F0B7FE4F
:103EC000616A07460198FFF758F80546F8B9A66AEF
:103ED000F37A43F02003F372A26820683146FEF7BC
:103EE000CDFFE16806F11C00FEF7EAFE394606F157
:103EF0001600FEF7E5FE0198B5740123F574C37052
:103F0000FEF7F1FF237D23F0400305462375294684
:103F10000198FFF71FFACAE737B50546FFF7ACFF70
:103F2000044678B901A92846FFF71FFA044648B9A4
:103F30002869FEF73DFF044600B92860002101987A
:103F4000FFF708FA204603B030BD000030B50F4B34
:103F50005D7A05F0FF04B5B95D7A5C555D7A03EBD7
:103F600085056860587A184402725A7AD2B2501C99
:103F7000C0B258723A2330324B702F230A708B70C4
:103F8000CC70204630BD012030BD00BF5400002061
:103F90000022FFF7DBBF13B500230C466846012162
:103FA0000093019300F05AF82060003018BF012000
:103FB00002B010BD08B500F041F9012008BD08B5F8
:103FC0004FF47A7100F070F8B0FA80F0400908BD43
:103FD00000F090B808B501F05FFA002008BD08B500
:103FE00001F0B8FC10F1FF3018BF012008BDEFF35D
:103FF00005830BB101F094BA01F08CBA70B5054697
:1040000046692A694068B5F908400B4686B02968B8
:1040100076B1AD6965B1842C14BF033400240295D8
:104020008DE8500001F0D4F90590059806B070BDF8
:10403000842C14BF0334002405AD92B28DE8300007
:1040400001F0FDF90128F0D00020EFE708B50028C5
:1040500008BF012001F076FB002008BD37B5446899
:104060000D466CB101291BD1032300220093284681
:104070002346114600F090FC0546284603B030BDAB
:1040800001290FD128460322214600F0CEFC054627
:104090000028F2D023462246214600F0EBFCECE754
:1040A0000025EAE72546E8E713B500240194E0B1CE
:1040B000EFF30583A3B101AA214600F0ABFF01286D
:1040C00002D0FF2002B010BD019B3BB1084B4FF066
:1040D00080521A60BFF34F8FBFF36F8F0020F1E75C
:1040E00000F0D8FE0128ECD1F8E78020EAE700BF15
:1040F00004ED00E013B500240194EFF3058393B1C0
:1041000001A900F0CFFD012813D1019B13B90020B4
:1041100002B010BD084B4FF080521A60BFF34F8FB2
:10412000BFF36F8FF3E71A46194600F0A3FC01288E
:10413000EDD0FF20ECE700BF04ED00E007B582689A
:104140004AB1C3683BB10021009103C800F024FCD0
:1041500003B05DF804FB03C8002203B05DF804EB74
:1041600000F063BC1FB5002401910394A24208BF74
:104170000122EFF30583ABB1234603AA01A900F0A6
:104180002FFD012802D0FF2004B010BD039B3BB1DE
:10419000074B4FF080521A60BFF34F8FBFF36F8F02
:1041A0000020F1E701A900F065FC0128EBD1F7E759
:1041B00004ED00E0F0B585B0002604461746084639
:1041C0000391029601AD11B98023019317E0009687
:1041D000EFF30583D3B16A4602A900F01BFF012863
:1041E00004BF10230193009B18BF01963BB10D4BF8
:1041F0004FF080521A60BFF34F8FBFF36F8F95E877
:10420000070084E80700204605B0F0BD02A900F0D1
:104210009DFD012801D11023D7E7002F0CBF0023FB
:104220004023D2E704ED00E010B5EFF305841CB99C
:1042300000F054FF204610BD822010BDFFF7F4BFF0
:1042400000F1080343604FF0FF32C36003610023B5
:1042500082600360704700230361704743684B60CE
:104260009A688A609A6851609960036808610133AE
:10427000036070470A68531C30B50AD103695A6855
:104280004A6091608B605960036808610133036084
:1042900030BD00F108035C682568AA42EFD32346CD
:1042A000F9E74168826803698A60826851605968E9
:1042B000884208BF5A60002202611A68013A1A60F7
:1042C0001868704782B0002301930D4B1B680133BF
:1042D00008D04FF0500383F31188BFF36F8FBFF303
:1042E0004F8FFEE74FF0500383F31188BFF36F8FBA
:1042F000BFF34F8F019B002BFCD002B0704700BF73
:104300000400002008480068006880F308884FF027
:10431000000080F3148862B661B6BFF34F8FBFF31D
:104320006F8F00DF00BF000008ED00E0DFF80C0039
:10433000016841F4700101607047000088ED00E001
:104340004FF0807340F8043C074B40F80C3C21F0E0
:1043500001016FF0020340F8081C40F8202C40F8DF
:10436000243C4438704700BFC542000800000000EC
:10437000074B19680868B0E8F04F80F30988BFF36D
:104380006F8F4FF0000080F311887047AFF300800B
:10439000803C00204FF0500383F31188BFF36F8FF0
:1043A000BFF34F8F0A4A13680133012B13600DD1FD
:1043B000084B1B6813F0FF0F08D04FF0500383F336
:1043C0001188BFF36F8FBFF34F8FFEE7704700BFB9
:1043D0000400002004ED00E0084A136843B94FF0E0
:1043E000500383F31188BFF36F8FBFF34F8FFEE746
:1043F000013B13600BB983F3118870470400002060
:10440000EFF30980BFF36F8F154B1A681EF0100F82
:1044100008BF20ED108A20E9F04F10602DE9090057
:104420004FF0500080F31188BFF34F8FBFF36F8FB1
:1044300001F0ACF94FF0000080F3118809BC196855
:104440000868B0E8F04F1EF0100F08BFB0EC108AFB
:1044500080F30988BFF36F8F704700BFAFF3008010
:10446000803C002008B54FF0500383F31188BFF360
:104470006F8FBFF34F8F01F05BF818B1034B4FF014
:1044800080521A60002383F3118808BD04ED00E018
:10449000084A0949002313600B60084B4FF47A71F6
:1044A0001B68B3FBF1F30649013B0B600723136064
:1044B000704700BF10E000E018E000E00C000020B2
:1044C00014E000E0394B3A4A13B51968914208D11B
:1044D0004FF0500383F31188BFF36F8FBFF34F8FFB
:1044E000FEE71A68334B9A4208D14FF0500383F32A
:1044F0001188BFF36F8FBFF34F8FFEE72E4B1A78F3
:10450000D2B20192FF221A701B782C4ADBB28DF8CE
:1045100003309DF8033003F050031370284B07223B
:104520001A6000219DF80300000602F1FF340DD44B
:1045300001B11A601A68032A11D04FF0500383F3B7
:104540001188BFF36F8FBFF34F8FFEE79DF80320F5
:104550005200D2B28DF8032001212246E2E7120276
:1045600002F4E0621A60019B134ADBB21370154B30
:104570001A6842F470021A601A6842F070421A60B7
:10458000FFF786FF104B00241C60FFF7CFFE0F4A99
:10459000136843F040431360FFF7B4FE01F0F6F8F0
:1045A000FFF790FE204602B010BD00BF00ED00E016
:1045B00071C20F4170C20F4100E400E060000020B2
:1045C0006400002020ED00E00400002034EF00E053
:1045D000EFF305830F2B0ED9104A9B5C104A12781B
:1045E0009A4208D94FF0500383F31188BFF36F8FBD
:1045F000BFF34F8FFEE70B4B0B4A1B68126803F4A7
:10460000E063934208D94FF0500383F31188BFF35E
:104610006F8FBFF34F8FFEE7704700BFF0E300E0FE
:10462000600000200CED00E06400002010B50F4B8E
:104630001A68824218D35C681919884201BF416820
:10464000184609195960446801198A4207D1084976
:1046500009688A421FBF516812680919416098426F
:10466000026018BF186010BD1346E1E7783C0020D7
:10467000680000202DE9F041044600F043FF3E4968
:104680003E4D0B680BBB3E4A56071FBFD01D20F0A6
:10469000070002F570531B1A14BF02464FF4705303
:1046A0001344083B23F00703364E0B600020706074
:1046B000326058601860981A1360334B506018606D
:1046C000324B18604FF000432B602F68274216D101
:1046D000002C41D004F1080358071CBF23F0070346
:1046E000083363B1294A1668B342904607D8254A71
:1046F00015686868834204D809688D4207D1002490
:104700002AE02C68002CF7D02A462546F1E72968D4
:1047100014681160C21A102A0FD9E818410708D08E
:104720004FF0500383F31188BFF36F8FBFF34F8FA8
:10473000FEE742606B60FFF779FF13496B6808681A
:10474000F61A1F4386424FF00003C8F8006038BFD6
:104750000E6008346F602B6000F07CFF630708D0A8
:104760004FF0500383F31188BFF36F8FBFF34F8F68
:10477000FEE72046BDE8F081680000206C3C002088
:104780006C000020783C0020743C0020703C00202D
:1047900010B5044670B3184A50F8043C126813422E
:1047A00008D14FF0500383F31188BFF36F8FBFF32D
:1047B0004F8FFEE750F8081C41B14FF0500383F3D0
:1047C0001188BFF36F8FBFF34F8FFEE723EA020319
:1047D00040F8043C00F096FE084A54F8043C116886
:1047E000A4F108000B441360FFF720FFBDE8104060
:1047F00000F030BF10BD00BF6C3C0020703C0020BA
:1048000010B50446FFF7C6FDA46BFFF7E5FDB4FA4B
:1048100084F0400910BD70B51546026C866B0446E5
:1048200042B905689DB9406801F0F8F86560013645
:10483000A66370BD6DB9806801F048FFA368226C63
:1048400013446268A360934201D32368A3600020ED
:10485000EDE7C06801F03AFF236CE26821685B4233
:104860001A448A42E2603EBF62689B18E360022DF0
:10487000EDD10EB1013EEAE73046D8E7034610B469
:104880001A6C084662B1D9685C681144A142D960CB
:1048900024BF1968D960D9685DF8044B01F016BFD0
:1048A0005DF8044B704770B50446FFF773FD94F84C
:1048B000455004F124066DB2002D14DCFF2384F86A
:1048C0004530FFF789FDFFF765FD94F8445004F18A
:1048D00010066DB2002D12DCFF2384F84430BDE8D1
:1048E0007040FFF779BD636A002BE7D0304600F0D7
:1048F000A1FF08B101F028F8013D6DB2DCE72369A2
:10490000002BE9D0304600F095FF08B101F01CF80B
:10491000013D6DB2DEE7000038B50D46044640B9F2
:104920004FF0500383F31188BFF36F8FBFF34F8FA6
:10493000FEE7FFF72FFD206CE36B2268A260434384
:10494000D1181B1A13446160E3600021FF23A163A7
:1049500084F8443084F8453095B9236963B104F193
:10496000100000F067FF38B10A4B4FF080521A6018
:10497000BFF34F8FBFF36F8FFFF72EFD012038BDC0
:1049800004F11000FFF75CFC04F12400FFF758FC71
:10499000F2E700BF04ED00E013B51C4640B94FF04C
:1049A000500383F31188BFF36F8FBFF34F8FFEE780
:1049B00043B94FF0500383F31188BFF36F8FBFF3F8
:1049C0004F8FFEE74AB1D9B94FF0500383F31188F6
:1049D000BFF36F8FBFF34F8FFEE789B14FF05003E6
:1049E00083F31188BFF36F8FBFF34F8FFEE74FF054
:1049F000500383F31188BFF36F8FBFF34F8FFEE730
:104A000048230193019B482BF1D10123002908BFC2
:104A10002246E063216484F846302260194620462D
:104A2000FFF77AFF204602B010BD70B50D4606466E
:104A300040B94FF0500383F31188BFF36F8FBFF37A
:104A40004F8FFEE748434830FFF714FE044650B14D
:104A5000002380F8463045B92060E66325640121D3
:104A60002046FFF759FF204670BD00F14803036060
:104A7000F3E700002DE9FF47894601921F460446EF
:104A800040B94FF0500383F31188BFF36F8FBFF32A
:104A90004F8FFEE7002940F08880036C002B00F068
:104AA00084804FF0500383F31188BFF36F8FBFF3FF
:104AB0004F8FFEE7019E002E00F082804FF05003E2
:104AC00083F31188BFF36F8FBFF34F8FFEE7019D14
:104AD0001DB9FFF781FC002058E016B902A800F0CC
:104AE000EBFEFFF779FC00F00DFDFFF753FC94F8A7
:104AF0004430FF2B08BF84F8448094F84530FF2BE6
:104B000008BF84F84580FFF767FC01A902A800F000
:104B1000DFFE002843D1FFF73DFCA66BE56BFFF7F6
:104B20005BFCAE4235D1019904F1100000F068FE43
:104B30002046FFF7B8FE00F08DFD38B94FF08053E6
:104B4000CAF80030BFF34F8FBFF36F8F0126FFF716
:104B500021FCA26BE36B9A4201D3022FB7D13A46F4
:104B600049462046FFF757FE636A1BB104F1240053
:104B700000F060FE38B1194B4FF080521A60BFF35D
:104B80004F8FBFF36F8FFFF727FC012004B0BDE804
:104B9000F0872046FFF787FE00F05CFDD6E7204651
:104BA000FFF781FE00F056FD95E7022F02D1E36B7F
:104BB000012B0AD100F0CEFE00283FF47BAF002687
:104BC0004FF00008DFF814A0C1E74FF0500383F363
:104BD0001188BFF36F8FBFF34F8FFEE704ED00E046
:104BE0002DE9F843884691461F46044640B94FF0E8
:104BF000500383F31188BFF36F8FBFF34F8FFEE72E
:104C000009BB036CFBB14FF0500383F31188BFF372
:104C10006F8FBFF34F8FFEE704F1240000F00AFE10
:104C2000002834D0B9F1000F31D00120C9F80000BC
:104C300086F31188BDE8F88301356DB284F84550DC
:104C400025E00020F4E7022F02D1E36B012B20D1F5
:104C5000FFF7BEFCEFF311864FF0500383F311888A
:104C6000BFF36F8FBFF34F8FA26BE36B9A4201D3F9
:104C7000022FE6D194F845503A466DB2414620469F
:104C8000FFF7C9FD6B1CD7D1636A002BC4D101208B
:104C9000CEE74FF0500383F31188BFF36F8FBFF35C
:104CA0004F8FFEE770B50D46044640B94FF05003F4
:104CB00083F31188BFF36F8FBFF34F8FFEE7036C51
:104CC00043B14FF0500383F31188BFF36F8FBFF3ED
:104CD0004F8FFEE703680BB9436873BBFFF778FC9F
:104CE000EFF311864FF0500383F31188BFF36F8FFA
:104CF000BFF34F8FA26BE36B9A4201D3002014E005
:104D000094F8453001325BB2A2635A1C10D1636A39
:104D10000BB9012009E004F1240000F08BFD00280C
:104D2000F7D0002DF5D00120286086F3118870BDE2
:104D300001335BB284F84530EBE74FF0500383F367
:104D40001188BFF36F8FBFF34F8FFEE72DE9F0435C
:104D500085B088460192044640B94FF0500383F372
:104D60001188BFF36F8FBFF34F8FFEE7002940F02C
:104D70008680036C002B00F082804FF0500383F399
:104D80001188BFF36F8FBFF34F8FFEE7019E002E98
:104D90007AD04FF0500383F31188BFF36F8FBFF3C6
:104DA0004F8FFEE7019D1DB9FFF716FB002052E073
:104DB00016B902A800F080FDFFF70EFB00F0A2FB81
:104DC000FFF7E8FA94F84430FF2B08BF84F84470EA
:104DD00094F84530FF2B08BF84F84570FFF7FCFAC4
:104DE00001A902A800F074FD00283DD12046FFF77C
:104DF00007FD98B3019904F1240000F001FD20465D
:104E0000FFF751FD00F026FC38B94FF08053C9F888
:104E10000030BFF34F8FBFF36F8F0126FFF7BAFA51
:104E2000A56B002DBED041462046013DFFF726FD73
:104E3000A563236963B104F1100000F0FBFC38B1F5
:104E4000134B4FF080521A60BFF34F8FBFF36F8F39
:104E5000FFF7C2FA012005B0BDE8F0832046FFF756
:104E600022FD00F0F7FBD8E72046FFF71CFD00F01D
:104E7000F1FB2046FFF7C4FC0028CED096E700F0F7
:104E800069FD002882D000260027DFF80490C5E7DE
:104E900004ED00E02DE9FF410446019140B94FF0D7
:104EA000500383F31188BFF36F8FBFF34F8FFEE77B
:104EB000056C45B14FF0500383F31188BFF36F8F3A
:104EC000BFF34F8FFEE700F045FD18B9019D002D9F
:104ED00040F09580DFF838812E460027FFF75AFA18
:104EE000A36BE3B1013BA363236813B900F040FE59
:104EF0006060236963B104F1100000F09BFC38B1DD
:104F0000434B4FF080521A60BFF34F8FBFF36F8F48
:104F1000FFF762FA0125284604B0BDE8F081019B45
:104F200063B945B14FF0500383F31188BFF36F8F1E
:104F3000BFF34F8FFEE7FFF74FFAECE716B902A871
:104F400000F0BAFCFFF748FA00F0DCFAFFF722FAAB
:104F500094F84430FF2B08BF84F8447094F845302F
:104F6000FF2B08BF84F84570FFF736FA01A902A8A5
:104F700000F0AEFC40BB2046FFF742FCF0B12368D6
:104F80003BB9FFF707FA606800F0F4FC0546FFF74D
:104F900023FA019904F1240000F032FC2046FFF7C7
:104FA00082FC00F057FB38B94FF08053C8F800304E
:104FB000BFF34F8FBFF36F8F01268FE72046FFF7B8
:104FC00072FC00F047FBF7E72046FFF76CFC00F0AF
:104FD00041FB2046FFF714FC0028EDD0002D9AD0AD
:104FE000FFF7D8F9616A19B1236B1968C1F107019C
:104FF000606800F063FD0025FFF7EEF98BE74FF0E6
:10500000500383F31188BFF36F8FBFF34F8FFEE719
:1050100004ED00E02DE9F84389469046054640B985
:105020004FF0500383F31188BFF36F8FBFF34F8F9F
:10503000FEE771BB036C63B34FF0500383F3118839
:10504000BFF36F8FBFF34F8FFEE795F8446049467B
:1050500076B22846FFF712FC013C731CAC6313D1F7
:105060002B690BB901200BE005F1100000F0E2FB09
:105070000028F7D0B8F1000FF4D00120C8F80000E4
:1050800087F31188BDE8F883013676B285F844606D
:10509000E8E7FFF79DFAEFF311874FF0500383F332
:1050A0001188BFF36F8FBFF34F8FAC6B002CCCD147
:1050B0002046E5E710B5084A002302EBC3014C681F
:1050C000844204D1002042F83300486010BD01330F
:1050D000082BF2D110BD00BF44C2002010B5044619
:1050E00040B94FF0500383F31188BFF36F8FBFF3C4
:1050F0004F8FFEE7FFF7DEFF94F8463023B92046D6
:10510000BDE81040FFF744BB10BD00002DE9F041A1
:105110000646FFF73FF92D4B2D4C1A682D4F0132F3
:105120001A602568002D45D126601B68012B1CD113
:1051300078191435FFF784F88C2DF9D1DFF8C08089
:10514000254D4046FFF77CF82846FFF779F82348BD
:10515000FFF776F82248FFF773F82248FFF770F858
:10516000214BC3F80080214B1D60214A214913685F
:10517000086801331360F26A01239340034314204B
:105180000B6000FB0270311DFFF768F8FFF724F990
:10519000194B1B6863B12368DA6AF36A9A4207D233
:1051A000164B4FF080521A60BFF34F8FBFF36F8FD3
:1051B000BDE8F081104B1B68002BD6D12368DA6A5A
:1051C000F36A9A4298BF2660CFE700BF183D0020DF
:1051D000803C00208C3C0020443D0020603D0020AD
:1051E0008C3D0020783D0020843C0020883C00203D
:1051F000283D00202C3D0020743D002004ED00E0FF
:10520000303D0020064A13681968064B19B94FF063
:10521000FF321A6070471268D268D2685268F8E7A5
:10522000843C0020583D00202DE9F0470A9CDDF821
:105230002480266B02F18042013A06EB82069A46F0
:1052400081464B1E26F0070604F134020F315878D0
:1052500002F8010B13F8010F08B18B42F7D1089D3A
:10526000062D28BF06250027E5626564201D84F809
:105270004370A764FEF7EFFFC5F1070504F11800BE
:10528000FEF7E9FFE7642461A561646284F8507069
:10529000524649463046FFF753F82060B8F1000FF8
:1052A00001D0C8F80040BDE8F08710B590F8513043
:1052B00004463BB9006BFFF76BFA2046BDE810408F
:1052C000FFF766BA012BF9D0022B08D04FF050033C
:1052D00083F31188BFF36F8FBFF34F8FFEE710BDCD
:1052E00080B5DFF85C80124F124C134D236863B910
:1052F000124B1B68012BF8D94FF08053C8F80030CF
:10530000BFF34F8FBFF36F8FEEE7FFF743F8FB68F4
:10531000DE68301DFEF7C5FF2B68013B2B6023685C
:10532000013B2360FFF758F83046FFF7BEFFDDE78B
:105330008C3D00201C3D0020183D00208C3C0020AE
:1053400004ED00E0F8B51B4B1B4E1D6804463068A9
:1053500004300F46FEF7A5FF334640B93168174EBB
:10536000C96A32680120884022EA00023260621C69
:1053700007D137B1196812480431BDE8F840FEF78B
:105380006DBF2C441A68A542546007D90D4A1068B5
:105390001968BDE8F8400431FEF76CBF0A4A10688E
:1053A00019680431FEF766FF084B1A68944238BF4B
:1053B0001C60F8BDA03D0020803C00202C3D00205A
:1053C000783D0020883C0020843C0020583D00208F
:1053D00070B586B00B9D0C9C45B94FF0500383F31C
:1053E0001188BFF36F8FBFF34F8FFEE744B94FF0C3
:1053F000500383F31188BFF36F8FBFF34F8FFEE726
:1054000054260496049E542E08D04FF0500383F384
:105410001188BFF36F8FBFF34F8FFEE7256302251F
:1054200084F8515005AD01950A9D02940095FFF74F
:10543000FBFE2046FFF76AFE059806B070BD2DE919
:10544000F043074685B09000884616469946FFF718
:1054500011F90546E8B15420FFF70CF90446A8B14C
:10546000002380F851300D9B056301930C9B029043
:10547000009332464B4641463846FFF7D5FE20465C
:10548000FFF744FE012005B0BDE8F0832846FFF792
:105490007FF94FF0FF30F6E710B588B0002407AA77
:1054A00006A905A80594069400F02CFD059B02931F
:1054B000069B019300942346079A0D490D48FFF778
:1054C00087FF90B14FF0500383F31188BFF36F8FC4
:1054D000BFF34F8F084B4FF0FF321A60074B01228A
:1054E0001A60074B1C60FEF7EDFF08B010BD00BF4F
:1054F000CF670008E1520008583D0020743D0020AD
:10550000A03D0020024A136801331360704700BFBA
:10551000243D0020014B1868704700BFA03D0020CB
:1055200008B5FFF755F8014B186808BDA03D0020ED
:105530002DE9F84F3C4B1B68002B53D13B4B1C68AB
:1055400001341C60BCB93A4B1A68126842B14FF082
:10555000500383F31188BFF36F8FBFF34F8FFEE7C4
:10556000344A1968106818601160334A13680133AF
:105570001360FFF747FE314D314F2B689C424FF0CF
:10558000000B3ED3DFF8A880DFF8C490D8F80020E5
:10559000126872BB4FF0FF322A6032E006F1040A53
:1055A0005046FEF77EFEB16A19B106F11800FEF70B
:1055B00078FEF06AD9F80030012202FA00F11943AE
:1055C000204BC9F800104FF0140E51460EFB00306E
:1055D000FEF744FE3868F16AC26A914228BF4FF074
:1055E000010BD3E7184A1368013313604FF0000B27
:1055F00011E0D8F80020D268D66871688C42CDD20C
:1056000029603A680F4BD16A14224A439A58022AF9
:1056100028BF4FF0010B0D4A1268002A18BF4FF047
:10562000010B5846BDE8F88F243D0020A03D002026
:10563000843C0020883C00205C3D0020583D002038
:10564000803C00208C3C0020203D0020A43D002018
:105650002C3D00202DE9F843314C236843B94FF02D
:10566000500383F31188BFF36F8FBFF34F8FFEE7B3
:10567000FEF790FE2368013B236024682CB10024D0
:10568000FEF7AAFE2046BDE8F883264B1B68002BD8
:10569000F5D0DFF8A890244FDFF8A480D9F80030C7
:1056A000E3B90CB1FFF7AEFD204D2C6844B1204E9C
:1056B0000127FFF73DFF00B13760013CF9D12C60B5
:1056C0001B4B1B68002BDAD01A4B4FF080521A602C
:1056D000BFF34F8FBFF36F8F0124D1E7D9F80C30A0
:1056E000DC68261D04F11800FEF7DBFD3046FEF7EE
:1056F000D8FDE26A3968012505FA02F314200B434C
:1057000000FB028031463B60FEF7A8FD0A4BE26ACF
:105710001B68DB6A9A4224BF054B1D60BEE700BFD1
:10572000243D0020183D00202C3D0020203D00207D
:10573000A43D002004ED00E0803C0020603D0020FE
:105740008C3C002008B540B90E4B4FF080521A60D7
:10575000BFF34F8FBFF36F8F08BD0B4B196841B17B
:105760004FF0500383F31188BFF36F8FBFF34F8F58
:10577000FEE7FFF7C7FEFFF7E5FDFFF76BFF002829
:10578000E2D008BD04ED00E0243D0020174B1A686C
:10579000174B10B512B101221A6010BD1A60154BDB
:1057A0001B68B3FA83F3DBB2C3F11F03142212495F
:1057B0005A4388188C5844B94FF0500383F311882A
:1057C000BFF36F8FBFF34F8FFEE744680832646802
:1057D00044600A44944204BF62684260142202FB9F
:1057E00003135B68DA68054BD6E700BF243D002051
:1057F000A43D00202C3D00208C3C0020803C00205B
:1058000010B50C4640B94FF0500383F31188BFF335
:105810006F8FBFF34F8FFEE7054B19681831FEF706
:1058200029FD20460121BDE81040FFF78BBD00BFD8
:10583000803C002038B5C368DC6844B94FF05003A1
:1058400083F31188BFF36F8FBFF34F8FFEE704F12F
:1058500018052846FEF725FD114B1B68E3B9251DE9
:105860002846FEF71EFD0F49E26A086801239340AF
:1058700003430B600C4B1420294600FB0230FEF75B
:10588000EDFC0A4BE26A1B68DB6A9A4283BF084B55
:1058900001201860002038BD29460648EFE700BF08
:1058A000243D00202C3D00208C3C0020803C00202A
:1058B000A43D0020603D0020034B1B680360034BA8
:1058C0001B684360704700BF5C3D0020A03D002086
:1058D00070B50C46054640B94FF0500383F311886C
:1058E000BFF36F8FBFF34F8FFEE741B94FF0500307
:1058F00083F31188BFF36F8FBFF34F8FFEE7FEF77F
:1059000049FD0F4B69681A682368581C0ED00D4872
:105910002E680068864201D08A420ED2521A9A42FC
:1059200009D29B1A23602846FFF7C6FF0024FEF722
:1059300053FD204670BD002323600124F7E700BF1C
:10594000A03D00205C3D0020014B01221A60704701
:10595000A43D0020054B1B6833B1054B1B68002B91
:105960000CBF02200020704701207047743D0020CA
:10597000243D00202DE9F0410446002841D0244A6E
:10598000C36A1168C96A8B42174631D28269214DB8
:10599000002AA1BF3A68D26AC2F1070282611426C6
:1059A000426906FB03539A422DD100F10408404698
:1059B000FEF777FC184B48B9E06A4643AA592AB962
:1059C0001A680121814022EA01021A603A681968C6
:1059D000D26AE262012404FA02F00843186014203B
:1059E000414600FB0250FEF739FC0120BDE8F08182
:1059F0001368406CDC6AA0422CBF00200120BDE887
:105A0000F081BDE8F0813B68DB6AC362EDE700BF6F
:105A1000803C00208C3C00202C3D0020F8B5044642
:105A200008B90020F8BD224B1B68984208D04FF0FF
:105A3000500383F31188BFF36F8FBFF34F8FFEE7DF
:105A4000836C43B94FF0500383F31188BFF36F8F1A
:105A5000BFF34F8FFEE7C16A426C013B9142836402
:105A6000DFD0002BDDD1051D2846FEF71AFC114EB4
:105A7000114A50B9E76A1421794373582BB9136856
:105A80000120B84023EA00031360636CE362C3F1B2
:105A90000701A1611168012404FA03F008431060B2
:105AA000142000FB03602946FEF7D8FB2046F8BD12
:105AB000803C00208C3C00202C3D0020F8B50446A2
:105AC00000284DD0826C42B94FF0500383F3118807
:105AD000BFF36F8FBFF34F8FFEE7436C994238BF20
